:100000000C9402040C942A040C942A040C942A04E0
:100010000C942A040C942A040C942A040C942A04A8
:100020000C942A040C942A040C942A040C9495161B
:100030000C942A040C942A040C942A040C942A0488
:100040000C94F2160C942A040C942A040C942A049E
:100050000C942A040C942A040C942A040C942A0468
:100060000C942A040C942A04000808E781810000FB
:100070008181E708081818181818181818080800B7
:100080000000FFFF00000008080000001F1F1818F4
:10009000180808000000F8F81818180808181818A8
:1000A000F8F800000008081818181F1F00000008C2
:1000B00008242424242424242408080000FF000009
:1000C000FF0000080800001F302027242408080033
:1000D00000F80C04E4242408082424E4040CF800A8
:1000E00000080824242720301F0000080818181FC3
:1000F000F8F827242408081818F81F1FE4242408F7
:10010000082424E41F1FF818180808242427F8F8E6
:100110001F18180808242424FFFF24242408081882
:1001200018FF1818FF181808080018E40202E4184D
:100130000008080018274040271800080800001889
:100140003F3F1800000808000018FCFC18000040A1
:100150001E84E00010A0004280971F001020004085
:10016000809150800CC00033008C0240084E072163
:10017000004001200971F8E5002110A009150A8549
:10018000001F1C2008C060090000E42004000002D9
:1001900000000660021108840000081001F1F8F860
:1001A00000000850000E07000000081000000000CA
:1001B000000006600000000000C0E4200000000015
:1001C000003F1CA00000000000A150A000000000A3
:1001D000000C01200007000700000040000500059A
:1001E00000211080000500070C3F1F0000050000E3
:1001F00014C0E00000070000143E1F8EF07738E7BF
:10020000377E3F4BE8BF28A53FF079AE29E738A5F8
:100210001CE070AE29C738A51CE070EE39C738E77E
:100220001CE070EE39C738E71CF079EE39C738E7C3
:100230001C7E3FCE38FF3FE71F3E1F8E38771EE7FC
:100240000F03053F213F1208120A100A0E1C0E0C64
:100250001E0C141A14161F161E131E1E1B1E1E1F04
:100260001E3F213F3A2F3A173D173F213F181F02EB
:10027000040A041F0E04040E1F0A1F0A0E0E1F0498
:10028000110E2E252E2F2A2E262929021F02081F85
:1002900008150E04040E150E15151B151B04060477
:1002A000040C040000000017000300031F0A1F16BF
:1002B000371A1904130A153A000300000E11110E23
:1002C000000A040A040E04003000040404001000B4
:1002D0001804031F111F121F101D151711151F07DA
:1002E000041F17151D1F151D01011F1F151F1715B1
:1002F0001F000A00003200040A110A0A0A110A0447
:100300000115020E11171E051E1F150A0E110A1FD8
:10031000110E1F15111F05010E111D1F041F111FA6
:100320001108100F1F041B1F10101F061F1E040FA3
:100330000E110E1F09060E112E1F051A12150901A6
:100340001F011F101F0F180F1F0C1F1B041B031C66
:1003500003191513001F11030418111F00020102D5
:100360002020200001020C121E1F120C0C12120C75
:10037000121F0C1A14041E05242A1E1F021C141D11
:100380001020201D1F0814111F101E041E1E021C09
:100390000C120C3E0A040C123E1E040214160A0231
:1003A0000F120E101E0E100E1E081E120C12262802
:1003B0001E322A26041E21001F00211E04010201F4
:1003C0003F213F05077F4141417F3E5B4F5B3E3E02
:1003D0006B4F6B3E183C783C18183C7E3C181C5701
:1003E0007D571C1C5E7F5E1C007E43437E007E7337
:1003F000737E007E7F7F7E7F4141417F30483A0699
:100400000E06297929067F4141417F60703F020431
:100410002A1C361C2A7F3E1C080000081C3E7F1444
:10042000227F22143C3C3C7EFF18423C817E3E638E
:1004300075633E3E616B633E3E636B6B3E04027FC1
:10044000020410207F201008082A1C08081C2A0813
:1004500008143E554122637569756310181C181005
:10046000040C1C0C04000000000000005F000000F1
:1004700007000700147F147F14042A7F2A10231317
:1004800008646236495620500008070300001C2209
:1004900041000041221C002A1C3E1C2A08083E087C
:1004A0000800E0600000080808080800606000001C
:1004B00060100804033E5149453E00427F400062FF
:1004C000514949462141494D331814127F1027459F
:1004D0004545393C4A4949304121110907364949C6
:1004E0004936064949291E000024000000806400A6
:1004F000000814224100141414141400412214089A
:1005000002015909063E415D594E7C1211127C7F51
:10051000494949363E414141227F4141221C7F49A0
:100520004949417F090909013E414151327F08088B
:10053000087F00417F41002041413F017F08142294
:10054000417F404040407F020C027F7F0204087FD1
:100550003E4141413E7F090909063E416141BE7F5E
:1005600009192946264949493201017F01013F40C5
:1005700040403F1F2040201F3F4038403F63140849
:10058000146303047804036151494543007F4141EA
:100590000003040810600041417F000402010204CE
:1005A0008080808080000307080020545478407FBA
:1005B000284444383844444428384444287F385434
:1005C000545418087E09090218A4A49C787F0804D2
:1005D000047800447D4000006080847D7F101028F6
:1005E0004400417F40007C047804787C080404784F
:1005F0003844444438FC1824241818242418FC7C5B
:10060000080404080854545420043F4444203C4047
:1006100040207C1C2040201C3C4020403C442810B2
:1006200028444C9090907C4464544C4400083641DB
:100630000000007F00000041360800180408100C7C
:100640007F4141417F0A4E6F2053442063617264B1
:10065000206F720A6E6F204C4F414445522E484520
:10066000580A0A153A45786974001D20466C617372
:1006700068696E670A20206C6F616465722E2E2E89
:100680000A0A444F4E2754205455524E204F464696
:1006900021000A0A153A49676E6F7265006D560AA5
:1006A0000A504C45415345205455524E204F464622
:1006B00020004C4F572042415454455259212000AC
:1006C0001753440016137800161314001510200059
:1006D00015201000540A03E181867F3E186D830FB8
:1006E0000F0E0183866033186DC3198F1803C38EF4
:1006F0006033186DE330CF1803C39E603630CDE30E
:1007000060CF3006C79E7E3E30CDB360CF300CC682
:10071000F6603330D9B660CF33CFCCF66061B0DB52
:100720001E60CF30D86CE6C061B0DB1E618F1998B7
:100730006CC6C063B19B0E330F0FB078C6FF7E1F2F
:100740001B061E0F0500893008023802497868141C
:100750000000F6E8DBCFC3B8AEA49B928A827B741C
:100760006E68625C57524E4945413E3A3734312EED
:100770002C29272523211F1D1C1A191716151413A0
:100780001211100F0E0D0C0B0A0908070645006820
:100790000100000500380168010000A3079F070160
:1007A00001FF030101F7030000000800020100003F
:1007B000030407000000000000000001020408100C
:1007C00020408001020408102001020408102004C7
:1007D00004040404040404020202020202030303E8
:1007E000030303000000002300260029000000008E
:1007F00000250028002B0000000000240027002A0C
:1008000000003B0811241FBECFEFD8E0DEBFCDBFF4
:1008100011E0A0E0B1E0EEEEF8E302C005900D9229
:10082000A236B107D9F724E0A2E6B1E001C01D92DB
:10083000A030B207E1F718E0C4E0D8E004C0229786
:10084000FE010E94621CC230D107C9F70E940C1938
:100850000C94751C0C940000DC01643508F053C046
:10086000403308F050C090968C919097342F359576
:1008700035953595E62FFF27E7FDF095242F277056
:10088000823099F4DF01AF50BE4F84E53802A00DED
:10089000B11D11248C9190E0022E02C09595879590
:1008A0000A94E2F78095817009C0833039F44627B5
:1008B0001C968C91482740FF03C014C0811112C0C0
:1008C00084E53802E00DF11D1124EF50FE4F81E068
:1008D00090E0022E01C0880F0A94EAF7809590817B
:1008E000982310C084E53802E00DF11D1124EF506B
:1008F000FE4F81E090E0022E01C0880F0A94EAF7D3
:100900009081982B90830895BF92CF92DF92EF92BF
:10091000FF920F931F93CF93DF9382E1C82E81E064
:10092000D82E10E09AE0B92EFF24F394F10EC0E027
:10093000D0E080916401813039F44C2F612F87EB36
:1009400091E00E942C043FC08230A9F463E087EB61
:1009500091E00E94140A26E04C2F6F2D87EB91E066
:100960000E943F0A26E04C2F4F5F612F87EB91E0FA
:100970000E941C0A23C08330A1F463E087EB91E05E
:100980000E94140A28E04C2F612F87EB91E00E940F
:100990001C0A28E04C2F612F87EB91E00E943F0A50
:1009A0000DC0843081F463E087EB91E00E94140A6B
:1009B0004C2F612F87EB91E00E942C0461E087EBC4
:1009C00091E00E94140AF601EC0FFD1F2081222302
:1009D00069F0B29E9001112427593F4FE12C00E0AD
:1009E0004C2F612F87EB91E00E943C0D2896C0337D
:1009F000D10509F09ECF8FEFC81AD80A185F1034BE
:100A000009F092CF40911001440F440F440F6091C0
:100A10001101660F660F660FE12C00E029E630E059
:100A200087EB91E00E943C0D1093C0018BE2809314
:100A3000C10161E472E087EB91E00E94290E6091B0
:100A40000E0170910F014AE050E087EB91E00E94A7
:100A5000651A80916201882389F01093C0018AE0B1
:100A60008093C10163EC73E087EB91E00E94290E53
:100A700064E471E087EB91E00E947E1980910E01A1
:100A800090910F01892B91F48EE18093C0018AE04F
:100A90008093C10163EC73E087EB91E00E94290E23
:100AA00068E471E087EB91E00E947E1980E4809316
:100AB000C00184E18093C10163EC73E087EB91E0B6
:100AC0000E94290E60916501709166014AE050E034
:100AD00087EB91E0DF91CF911F910F91FF90EF9005
:100AE000DF90CF90BF900C94651A89E691E00E9448
:100AF000B6134FE451E068E670E089E691E00C94AB
:100B0000FB1120916701309168012F5F3F4F8830C2
:100B100008F05FC0663008F05CC098E0699FF001A3
:100B20001124E80FF11DEE5EFE4F9081992309F428
:100B300050C0953141F44330B1F5309368012093B2
:100B4000670181E00895963119F4443061F5F5CFDD
:100B5000913011F0923141F4413011F46150D5CF10
:100B6000423011F46F5FD1CF923011F0913141F4E6
:100B7000433011F48150C9CF443011F48F5FC5CF99
:100B8000933011F09F3021F4433041F04130F1F0C7
:100B9000943011F0903139F4443019F46F5F42E031
:100BA000B4CF413039F0977F953039F4443049F073
:100BB000423079F4815043E0A8CF963051F443306D
:100BC00019F4615041E0A1CF423019F48F5F44E045
:100BD0009CCF309368012093670180E008952091B5
:100BE0006701309168012F5F3F4F883008F060C087
:100BF000663008F05DC098E0699FF0011124E80FAD
:100C0000F11DEE5EFE4F9081992309F451C093319E
:100C100041F4443019F5309368012093670181E075
:100C20000895943119F44330C9F4F5CF973011F099
:100C3000913141F4413011F46150D5CF423011F47B
:100C40006F5FD1CF983011F0923141F4433011F4FD
:100C50008150C9CF443011F48F5FC5CF592F5B7FCE
:100C6000593029F4433039F04130A1F41EC05A30D4
:100C700041F4443019F46F5F42E0B5CF413051F494
:100C800006C05B3039F4443059F0423019F48150D9
:100C900043E0A9CF9C3011F0903151F4433019F466
:100CA000615041E0A0CF423019F48F5F44E09BCF08
:100CB000309368012093670180E00895EF92FF92DE
:100CC0000F931F93CF93DF9381E080936201109283
:100CD000680110926701C1E0D0E08E010F5E1E4FE7
:100CE000F12CEC2EEA94EA94F8018081833190F1A2
:100CF000863149F443E06F2D8E2D0E9481058111CC
:100D000002C010926201F8018081853149F444E00B
:100D10006F2D8C2F0E948105811102C010926201FB
:100D2000F8018081833149F443E06F2D8E2D0E94BC
:100D3000EF05811102C010926201F80180818431B7
:100D400049F444E06F2D8C2F0E94EF05811102C001
:100D500010926201085F1F4FF394F6E0FF12C4CFB8
:100D60002196C930D10509F0B8CF8091620188235E
:100D7000A1F020910C0130910D0180910A01909118
:100D80000B01280F391F80910E0190910F01820FE6
:100D9000931F90930F0180930E01DF91CF911F91CC
:100DA0000F91FF90EF9008952091100188E0289F07
:100DB00090011124D901AE5EBE4F11964C9111974E
:100DC00081E090E0FD01E80FF91F51815083019609
:100DD00086309105B9F7F901EE5EFE4F468308951E
:100DE0002091100188E0289F90011124D901AE5E66
:100DF000BE4F16964C91169786E090E00197FD0144
:100E0000E80FF91F5081518381309105B9F7F9013D
:100E1000EE5EFE4F41830895E0911101F0E0EE5E39
:100E2000FE4F408180E090E09F01D901A80FB91FDB
:100E300018965C9118975C93089688329105A9F7EB
:100E400040A70895E0911101F0E0EE5EFE4F40A54D
:100E500080E090E09F01D901A80FB91F90965C91A6
:100E6000909798965C930897883D5FEF950799F760
:100E70004083089589E691E00E940011882309F4D7
:100E8000F9C045E062E083E791E00E948009882391
:100E900059F180916301882301F18EE891E00E946D
:100EA000CF160E94F0060E945E0680910E0190917E
:100EB0000F0120910A0130910B01821B930B90933B
:100EC0000F0180930E01809165019091660101965A
:100ED000909366018093650107C08091110186306F
:100EE00018F48F5F8093110145E060E083E791E0A3
:100EF0000E948009882359F180916301882301F1C0
:100F00008EE891E00E94CF160E94D4060E945E06F1
:100F100080910E0190910F0120910A0130910B01F7
:100F2000821B930B90930F0180930E0180916501BA
:100F3000909166010196909366018093650107C0C8
:100F400080911101823018F081508093110145E0A9
:100F500063E083E791E00E948009882359F1809142
:100F60006301882301F18EE891E00E94CF160E9470
:100F700022070E945E0680910E0190910F01209140
:100F80000A0130910B01821B930B90930F01809308
:100F90000E01809165019091660101969093660122
:100FA0008093650107C080911001853018F48F5F30
:100FB0008093100145E061E083E791E00E948009A1
:100FC000882359F180916301882301F18EE891E033
:100FD0000E94CF160E940C070E945E0680910E01AF
:100FE00090910F0120910A0130910B01821B930B0C
:100FF00090930F0180930E0180916501909166019D
:101000000196909366018093650107C0809110015D
:10101000882319F081508093100164E083E791E008
:101020000E946E09882339F080916201811103C00A
:1010300081E08093630164E083E791E00E94770997
:1010400081111092630165E083E791E00E946E09CF
:10105000882349F0809164018F5F8093640185301B
:1010600010F01092640166E083E791E00E946E093F
:101070000C94840408951092BA011092B90186E587
:1010800091E09093B8018093B7010895CF93CFB7C3
:10109000F8948091F001811127C0E9EDF7E0849187
:1010A000E5ECF7E09491E82FF0E0EE0FFF1FE95038
:1010B000F84FA591B4918C91892321F461E08AE0E5
:1010C0000E94AC1861E08AE00E9473188CB58061C0
:1010D0008CBD8CB580648CBD61E08DE00E9473187E
:1010E00061E08BE00E9473188091F0018F5F809324
:1010F000F001CFBFCF91089521E0FC012083089536
:1011000070E085E00C94EB17AF92BF92CF92DF9224
:10111000EF92FF920F931F93CF93DF93EC0189819E
:101120009A812FE0289F8001299F100D112485E1CD
:101130000E94CE17800F911F24E0969587952A95DF
:10114000E1F79A8389832881222391F1AC81AD80D4
:10115000B12CC12CD12CE885F9857F0100E010E08D
:101160006E817F819B0140E050E08617970728F051
:10117000BC01E817F90708F4BF0180E090E01F9276
:101180001F921F92AF930E946B1A6B830F900F9068
:101190000F900F9070E085E0DF91CF911F910F913C
:1011A000FF90EF90DF90CF90BF90AF900C94EB1733
:1011B000DF91CF911F910F91FF90EF90DF90CF9033
:1011C000BF90AF900895FC018CE39FE093838283EE
:1011D00084E0818381E084870895CF93DF93EC01DD
:1011E0008C819D81892B81F18C858F7151F584E1F2
:1011F0000E94CE17BC01882777FD8095982F0E940A
:10120000E11A26EE3FE34EEC50E40E946D1B0E9473
:10121000B31A9B017B836A836115710581F084E0B9
:101220008983FE0140E0848195812817390710F4F5
:1012300049830AC04F5F32964430A9F702C08FEF4E
:1012400089838C858F5F8C87DF91CF910895FC0116
:1012500088E0808389E0818387E0828386E08383DE
:1012600084E0848382E0858381E186830895DF9230
:10127000EF92FF920F931F93CF93DF937C01EC01CA
:1012800000E010E0DD24DA9462E088810E947318A7
:1012900088810E94E218F701E00FF11F892B21F4E9
:1012A00087818F5F878308C08781882349F08F3FBC
:1012B00011F4178201C0D78260E088810E94731800
:1012C0000F5F1F4F219607301105F1F6DF91CF9187
:1012D0001F910F91FF90EF90DF900895FC01E60FB2
:1012E000F11D81E09781913009F080E00895FC01C3
:1012F000E60FF11D81E097819F3F09F080E008959E
:10130000262F30E0FC01E20FF31F8781423028F4E2
:1013100081508E3F48F080E008958F3FE1F3642FC5
:101320000E94E01B9130B9F781E008958EBD000066
:101330000DB407FEFDCF8EB508951F93CF93DF93B5
:10134000EC01162FF89460E08F850E94AC18888914
:1013500018161CF460E00E94AC18812F0E949609B8
:10136000888918161CF461E00E94AC187894DF910B
:10137000CF911F91089528EF31E0E1EFF1E0DF0117
:10138000A9011D9241505040E1F7DC0119961C92D1
:1013900019971A961C920895DF92EF92FF920F937D
:1013A0001F93CF93DF93EC018C858F5F8C8781EF48
:1013B000E82E81E0F82ED12C6D2D6064CE010E94C4
:1013C0009D0960E8CE010E949D0961E08F850E9421
:1013D000AC18888918161CF460E00E94AC1800E074
:1013E00010E0F701E00FF11F80810E9496090F5F66
:1013F0001F4F04351105A9F7888918161CF461E000
:101400000E94AC18D39484E5E80EF11C86E0D81253
:10141000D3CF60E4CE01DF91CF911F910F91FF9068
:10142000EF90DF900C949D09FC0160A361A30895E7
:10143000FC0160A341A30895CF92DF92FF920F9326
:101440001F93CF93DF931F92CDB7DEB76C01062FAA
:10145000F42E10E0121754F4412F4F0D602FC601E7
:1014600029830E942C041F5F2981F4CF0F90DF9104
:10147000CF911F910F91FF90DF90CF900895CF9261
:10148000DF92FF920F931F93CF93DF931F92CDB7FD
:10149000DEB76C01062FF42E10E0121754F4612F02
:1014A000600F4F2DC60129830E942C041F5F2981E4
:1014B000F4CF0F90DF91CF911F910F91FF90DF90AC
:1014C000CF900895DF92EF92FF920F931F93CF93E7
:1014D000DF93EC01E62ED22EF42E112707FD109596
:1014E000040F111D47FD1A958F2D992787FD9095A3
:1014F0008017910744F42D2D4F2D6E2DCE010E94A3
:101500003F0AF394F1CFDF91CF911F910F91FF909C
:10151000EF90DF9008958F929F92AF92BF92CF92FB
:10152000DF92EF92FF920F931F93CF93DF93EC0123
:10153000E62ED42E122FCC24C394C21AB22EB1940C
:10154000BB0CF12C802F8470A82E802F8270982ED7
:10155000802F8870882E0170F1160CF04DC0C7FCEA
:1015600004C01150B394B394CB0CF3948F2D880F17
:101570008F5FC80EAA2071F0412F4D0D6F2D6E0D9B
:10158000CE010E942C044F2D4D0D612F6E0DCE010A
:101590000E942C04992071F04D2D411B6F2D6E0D72
:1015A000CE010E942C044D2D4F19612F6E0DCE01DE
:1015B0000E942C04882071F04F2D4D0D6E2D611B63
:1015C000CE010E942C04412F4D0D6E2D6F19CE01BE
:1015D0000E942C04002309F4BFCF4D2D4F196E2D0E
:1015E000611BCE010E942C044D2D411B6E2D6F19E5
:1015F000CE010E942C04B0CFDF91CF911F910F91AB
:10160000FF90EF90DF90CF90BF90AF909F908F9022
:1016100008958F929F92AF92BF92CF92DF92EF92F6
:10162000FF920F931F93CF93DF93EC01B62EA42E5E
:10163000122FDD24D394D21AC22EC194CC0CFF24D5
:10164000F394802F8170882E992493949E0C0270BD
:101650008FEF8F0D8117C4F5D7FC04C01150C394D0
:10166000C394DC0C8F2D880F8F5FD80E882099F0E3
:10167000212F220F290D4A2D411B6F2D6B0DCE01FD
:101680000E941C0A23E02E0D4A2D4F19612F6B0D6D
:10169000CE010E941C0A002399F0212F220F290D50
:1016A0004A2D411B6B2D6F19CE010E941C0A23E0AD
:1016B0002E0D4A2D4F196B2D611BCE010E941C0A65
:1016C000F394E394E394C4CFDF91CF911F910F91F2
:1016D000FF90EF90DF90CF90BF90AF909F908F9052
:1016E00008959F92AF92BF92CF92DF92EF92FF92B6
:1016F0000F931F93CF93DF93EC01B62EF42EA22EFF
:10170000DE2CD194DD0C9D2C920E1E2D160F292D52
:10171000612F0E943F0ACC24CA94C00ECF0C292D01
:101720004C2D612FCE010E943F0AD00EFE0C2D2DB4
:101730004F2D6B2DCE010E941C0ABA0C6FEF6B0D62
:101740002D2D4F2DCE010E941C0A01E02E2D4F2D74
:10175000612FCE010E948B0ADE2CD094DB0C02E0BC
:101760002E2D4F2D6D2DCE010E948B0ACE1804E038
:101770002E2D4C2D6D2DCE010E948B0A08E02E2DB2
:101780004C2D612FCE010E948B0ADF91CF911F91CA
:101790000F91FF90EF90DF90CF90BF90AF909F9010
:1017A0000895AF92BF92CF92DF92EF92FF920F9384
:1017B0001F93CF93DF93EC01A62EC42EB22EF02EF2
:1017C0001E2DE194EE0CD12ED60E2E2D2B0D6D2D4F
:1017D0000E94620AFA94FE0CC10E6FEF6A0D6B0D47
:1017E000611BEF2C01E0212F4C2DCE010E94090B33
:1017F00002E0212F4C2D6D2DCE010E94090BDF91AF
:10180000CF911F910F91FF90EF90DF90CF90BF90FD
:10181000AF9008956F927F928F929F92AF92BF92F6
:10182000CF92DF92EF92FF920F931F93CF93DF93AC
:10183000F901A49031965491FC01F0A064350CF0AC
:101840000CC1BB24A7FCB094A62FBB27A7FDB09565
:10185000FD01EA0DFB1D1E161F060CF0FEC04033F5
:101860000CF0FBC0C52E042F112707FD1095E801D1
:10187000C50FD11D57FDDA951C161D060CF0EDC0E5
:10188000E90122969501295F3F4F37FF02C0295F8A
:101890003F4F73E0359527957A95E1F747FF0AC0EA
:1018A000C52EC40E209FA001219F500D1124C41BE2
:1018B000D50B40E00C2D112707FD1095040F111DCD
:1018C00047FD1A95013311051CF070E3C72EC41AA9
:1018D00067FD60E0E535F10514F0E4E5F0E01E2F6A
:1018E000FC0174857427862F992787FD9095FC014C
:1018F000EA1BFB0BDF015F01F7E0AF22BB24E0E84E
:10190000F0E002C0F595E795AA94E2F70E2FB7FD37
:10191000179653E0B595A7955A95E1F7AC0FBD1F03
:10192000E42FE77051E001C0550FEA95EAF74595BD
:1019300045954595E4E54E02800D911D11248F508B
:101940009E4F40E0DD24C7FCD094BB24B3943327E2
:10195000E42FF0E0EC15FD050CF07FC0FD01E490F4
:10196000F1E0FF1219C0EC01A02EFD01862E881AAD
:101970009C2E980C911608F067C09E2C9A2019F0A6
:101980009880952A9882A69429F43196E4906894D8
:10199000AA24A7F82196ECCFF1101BC0752E7094E5
:1019A000EC01A02EFD01862E881A9C2E980C911613
:1019B00008F04AC09E2C9A2019F0988097209882AF
:1019C000A69429F43196E4906894AA24A7F8219665
:1019D000ECCFE3E0FE1631F0EC01A02EFD01862EE7
:1019E000881A2EC0752E7094962EEC01A02EFD0143
:1019F0009116B0F48E2C8A2049F08880692C6726D5
:101A000060FE02C0852A01C087208882A69429F43E
:101A10003196E4906894AA24A7F893942196E8CF8D
:101A20007B2512C09E2C9A2019F0988095269882CA
:101A3000A69429F43196E4906894AA24A7F82196F4
:101A40009C2E980C911670F3550F19F48C5A9F4FD9
:101A500051E04F5FA20FB31F7BCFDF91CF911F915A
:101A60000F91FF90EF90DF90CF90BF90AF909F903D
:101A70008F907F906F9008952F923F924F925F9238
:101A80006F927F928F929F92AF92BF92CF92DF928E
:101A9000EF92FF920F931F93CF93DF93CDB7DEB7F3
:101AA0002A970FB6F894DEBF0FBECDBF6C01262E6D
:101AB000542F01111CC0E1101AC02A960FB6F894D9
:101AC000DEBF0FBECDBFDF91CF911F910F91FF9071
:101AD000EF90DF90CF90BF90AF909F908F907F90CE
:101AE0006F905F904F903F902F900C940A0CF901EB
:101AF000849131963490B9016E5F7F4F7A83698308
:101B0000A82EB12C9501295F3F4FB3E0359527955D
:101B1000BA95E1F73A87298703702FEF280F522EE5
:101B200010E07FEF730D832D90E09C838B83812FDA
:101B3000992787FD90958A159B050CF071C0812F20
:101B400017FF02C087E0810F682E65946594659445
:101B5000812F877887FF03C08150886F8F5FA0E84F
:101B60008A2E912C02C0959487948A95E2F7472E8D
:101B7000F12C772467FC70948F2D992787FD909521
:101B8000EB81FC818E179F070CF047C0A985BA85B1
:101B90008A9FF0018B9FF00D9A9FF00D1124E60DA6
:101BA000F71D89819A81E80FF91FE491F0E0E8219F
:101BB000F921EF2B79F1023039F0033041F0013097
:101BC00049F4452D6F2D08C0652D442D05C0642DA9
:101BD000412F02C04F2D612FEE2069F03E2D337052
:101BE000E0FE03C0922F961B692FE1FE05C0A32DD6
:101BF000A41B4A2F01C030E0620D450FC6012E83A1
:101C00003D835F8378870E942C043D81E32E788595
:101C10005F812E81F3944A94AFCF1F5F5A9487CF90
:101C20002A960FB6F894DEBF0FBECDBFDF91CF91DD
:101C30001F910F91FF90EF90DF90CF90BF90AF90EA
:101C40009F908F907F906F905F904F903F902F90DC
:101C50000895DC01FB0184918F5F14968C93149797
:101C60003196E491EF5F1596EC9315976E5F7F4F79
:101C70005F967C936E935E970895EF920F93CF9348
:101C8000DF93EC014E876D872F87E98A088B81E00F
:101C9000888788A319A28F8361E472E0CE010E9435
:101CA000290E0E9446088CB58F7D8CBD8CB58C7F2B
:101CB00081608CBD8DB581608DBD8CB58C608CBD17
:101CC00061E08E850E94731861E08D850E94731813
:101CD00061E08F850E947318898918161CF461E0F1
:101CE0000E947318888918161CF461E00E9473180A
:101CF000898918166CF460E00E94AC186AE070E004
:101D000080E090E00E946B1761E089890E94AC1826
:101D10008D85992787FD9095FC01E153F84FE4915B
:101D2000F0E0EE0FFF1FE351F84F259134913D8B0A
:101D30002C8BFC01E554F84F84918B8F8E8599276D
:101D400087FD9095FC01E153F84FE491F0E0EE0F30
:101D5000FF1FE351F84F259134913B8B2A8BFC01F7
:101D6000E554F84F84918A8F8889992787FD90954B
:101D7000FC01E153F84FE491F0E0EE0FFF1FE35157
:101D8000F84F259134913F8B2E8BFC01E554F84F91
:101D900084918C8F8F85992787FD9095FC01E15365
:101DA000F84FE491F0E0EE0FFF1FE351F84F25915B
:101DB0003491398F288FFC01E554F84F84918D8F31
:101DC00061E2CE010E949D0964E1CE010E949D095D
:101DD0008B8587FF02C08FE78B876B856068CE019C
:101DE0000E949D0960E2CE010E949D096CE0CE0137
:101DF0000E949D09CE01DF91CF910F91EF900C943D
:101E0000CC096F927F928F929F92AF92BF92CF92A6
:101E1000DF92EF92FF920F931F93CF93DF93EC012A
:101E2000162FF42EB02EE8A064350CF081C08FE29E
:101E300084170CF47DC0EC81F0E031970E9FC00157
:101E40000F9F900D1124860F911D67FD9A9518160E
:101E500019060CF06DC08D81809FC0011124840F84
:101E6000911D47FD9A95181619060CF061C0A62E13
:101E7000962EC22ED12C8A2D811B992787FD9095F5
:101E80002C8130E0821793070CF051C021503109AA
:101E90008217930779F0C29ED001C39EB00DD29EE7
:101EA000B00D1124A80FB91FEE8DFF8DEA0FFB1F97
:101EB000749001C0712C8F2C6F2C282D2F19332773
:101EC00027FD30958D8190E0281739076CF570FE5D
:101ED00011C081E0B81206C0482D6A2DCE010E94C3
:101EE0002C041EC00B2D2B2D462D692DCE010E94DA
:101EF000620A16C089A198A1891791F088A381E090
:101F0000B81206C0482D6A2DCE010E942C0407C0CD
:101F10000B2D2B2D462D692DCE010E94620AE8A2C1
:101F200076946B0C8394C9CF9B0CA394A4CFE8A2A6
:101F3000DF91CF911F910F91FF90EF90DF90CF90A5
:101F4000BF90AF909F908F907F906F9008950F9368
:101F5000CF93DF93EC01262F6A3039F42D819885D9
:101F60008A85299F800D112422C06D3011F10885CA
:101F70004A8569850E94010F48855C812985549FA7
:101F8000200D112429878F81882399F0332727FD7D
:101F9000309584E590E0459F8019910911248217BE
:101FA00093073CF49D818A85499F800D11248A877F
:101FB000198681E090E0DF91CF910F9108958F9283
:101FC0009F92AF92BF92CF92DF92EF92FF920F93C8
:101FD0001F93CF93DF93EC015C0186E8A80EB11C40
:101FE000D5018C91882309F44DC08C3018F41CE085
:101FF000181B01C010E0FE01EA5AFF4F81E0808308
:102000006E01BEE4CB0ED11C60E0C6010E94140A32
:102010004E01E3E58E0E911CD4018C9103E0080F74
:102020009DE2F92E4F2D481B410F23E0E22E24E5BF
:1020300060E0C6010E94D10B61E0C6010E94140A53
:10204000F401808103E0080F4F2D481B410F24E568
:1020500060E0C6010E94710BFE01E95AFF4F84E067
:1020600080833196D4018C91181B115D1083CC575D
:10207000DF4F68817981C6010E945919F50180817D
:1020800081508083DF91CF911F910F91FF90EF904E
:10209000DF90CF90BF90AF909F908F900895DF9288
:1020A000EF92FF920F931F93CF93DF93EC018C8DF0
:1020B0009D8D892B09F49CC08E01025B1F4F40E06F
:1020C00061E0C8010E94180A85E5FE01EE5AFF4F43
:1020D0009081891B3596808331961082698D61309D
:1020E00009F462C028F0888D653008F074C06FC0B4
:1020F000CE0185960E943B1581E0FE01EA5AFF4F12
:10210000808361E472E0C8010E94290E1D8E1C8E3E
:10211000FE01EC5AFF4F108238EAD32E7E018AE08E
:10212000E80EF11CCE010E9400118823D9F362EB66
:1021300076E0C8010E9459196A8D7B8D4AE050E013
:10214000C8010E94651A6DE976E0C8010E9459191C
:102150006D2D62956F7070E04AE050E0C8010E94FA
:10216000501A62E976E0C8010E94591964E0C7017B
:102170000E946E0981113CC0DA94A1F660E0CE01A4
:102180000E94800883B7817F846083BF83B78160AA
:1021900083BF83B7816083BF889583B78E7F83BFFA
:1021A00083B78E7F83BFBECFCF58DF4F4881598121
:1021B0006A817B814F705527662777274830510504
:1021C0006105710510F467E009C068E707C088235E
:1021D00079F06B5F03C0882359F06FE2C801DF918B
:1021E000CF911F910F91FF90EF90DF900C94801989
:1021F000DF91CF911F910F91FF90EF90DF900895A5
:102200008F929F92AF92BF92EF92FF920F931F9384
:10221000CF93DF93EC017C0100E8E00EF11CF701A5
:1022200080809180A280B3800E943C179501840138
:10223000061B170B280B390BB901A8015E011FE71C
:10224000A10EB11CF501808190E0A0E0B0E08E010C
:1022500005581F4F84179507A607B70750F4F801D4
:1022600080819181A281B381892B8A2B8B2B09F0EC
:1022700040C0F80180819181A281B381892B8A2B92
:102280008B2BA9F57E01F5E2EF0EF11CC7010E9430
:102290003815C7010E94A515C7010E946916CE0115
:1022A0000E94DF0FCE010E944F107E012EE4E20E4D
:1022B000F11CC7010E94CC09FE01EC5AFF4F80813E
:1022C000811103C0C7010E94BB090E944817F80191
:1022D0006083718382839383FE01EB58FF4FC9585B
:1022E000DF4F28813981621B730B7183608380E02B
:1022F00036C00E943C17F5012081620F711D811DBF
:10230000911DF7016083718382839383FE01EF58EF
:10231000FF4F40815181628173814F5F5F4F6F4FEB
:102320007F4F4083518362837383F801108211824F
:10233000128213820E944817FE01E958FF4F608302
:10234000718382839383CE010E948408CE010A9612
:102350000E943709CE0148960E94ED0881E0DF9186
:10236000CF911F910F91FF90EF90BF90AF909F90F2
:102370008F9008950F931F93CF93DF938C01EC01FF
:10238000C25BDF4FCE010E94BB096AE676E0CE0158
:102390000E945919CE010E94CC098CB583608CBD76
:1023A0008DB58E7F8DBD8AE591E0EEEFFFE3099557
:1023B000F801EC5AFF4F108265E476E0CE010E94EE
:1023C0009B19CE010E94CC09065F1F4FC8010E94D5
:1023D000370964E0C8010E946E09811107C062E3F9
:1023E00070E080E090E00E946B17F0CFDF91CF911A
:1023F0001F910F9108952F923F924F925F926F928B
:102400007F928F929F92AF92BF92CF92DF92EF9284
:10241000FF920F931F93CF93DF93CDB7DEB729972A
:102420000FB6F894DEBF0FBECDBF998788871B011A
:102430002A013C0180E7680E711CF301808188232A
:1024400009F402C181E0E885F985EA5AFF4F8083EB
:10245000E885F985EB5AFF4F1082E885F985EC5A3B
:10246000FF4F1082E885F985108E8F01025B1F4FA8
:1024700061E0C8010E94140A888599858D5A9F4F92
:102480009C838B83C884D98497E5C90ED11CE884CA
:10249000F984E8E5EE0EF11C888599858E5A9F4FE8
:1024A0009A838983E885F985EF58FF4FFE83ED8392
:1024B00088849984FAE08F0E911CA884B98485E2FF
:1024C000A80EB11C888599850E9400118823D1F33C
:1024D000F1018491882321F0EB81FC81508101C0BE
:1024E00050E024ED36E040E060E0C8015F830E94E8
:1024F0000A0C5F814114510439F04CE0450F920100
:1025000060E0C8010E940A0CF60110828CE0F7011D
:102510008083B101C8010E945919E981FA81908133
:10252000892F880F890F81958D5AF6018083EB8161
:10253000FC819081892F880F890F8195835DF70138
:102540008083ED81FE81808184FF03C060ED76E0B1
:1025500002C06CEC76E0C8010E949B19E981FA8107
:102560009081892F880F890F81958D5AF60180837C
:10257000F70180818F5F8083E885F98582A58823B4
:1025800019F068EC76E002C064EC76E0C8010E94C5
:102590009B19E981FA819081892F880F890F819594
:1025A0008D5AF6018083F70180818F5F808360EC14
:1025B00076E0C8010E949B1965E0C4010E946E0983
:1025C000882351F0E885F98562A56F5FC5010E94F7
:1025D000E516C5010E94CF1664E0C4010E946E0991
:1025E000811113C0F3012081822F90E0A0E0B0E0C0
:1025F000ED81FE81408151816281738148175907C5
:102600006A077B07A8F02F3F99F08FEFF3018083D3
:10261000088519850B5D1F4F60E0C8010E94E21418
:10262000C8010E94B91681E0E885F985808F0CC049
:1026300066E0C4010E946E09882309F443CF8885AF
:1026400099850E94BA1134CF29960FB6F894DEBF4F
:102650000FBECDBFDF91CF911F910F91FF90EF90F3
:10266000DF90CF90BF90AF909F908F907F906F90B2
:102670005F904F903F902F900895E0E8F7E7259105
:10268000349181E02130304C09F080E00895CF93FF
:10269000DF93EC010E943D139E01275A3F4FDE015C
:1026A000A059BF4F882309F43CC0E6E9F7E78491BD
:1026B000F9018083E7E9F7E7E491EC83E8E9F7E7DC
:1026C000E491ED83E9E9F7E7859194919F838E8307
:1026D000EBE9F7E78591949199878887EDE9F7E72A
:1026E000E491EBA7EEE9F7E7E491EAA7EFE9F7E772
:1026F000E491EC93E0EAF7E7859194919D8F8C8FBC
:10270000E2EAF7E7859194919F8F8E8FE4EAF7E7ED
:102710008591949199A388A3E6EAF7E7859194912E
:1027200020C08CE3F90180831C822FEF2D8380E28F
:1027300093E09F838E8384ED93E09987888781E07F
:102740008BA78AA72C938CEA9DE09D8F8C8F8EEDB2
:102750009DE09F8F8E8F84E79EE099A388A38CE3F2
:102760009FE09BA38AA3DF91CF910895CF92DF9240
:10277000EF920F93CF93DF93EC01FC01E158FF4FF1
:1027800082E38083349741E050E060E070E0408372
:102790005183628373833B978FEF8083CE010E94C6
:1027A0004713CE010E947C086FEFCE010E94800883
:1027B0006E018AE0C80ED11CC6010E942709C6011D
:1027C0000E943709CE0148960E94E3083EE0E32EBE
:1027D0000FE020E14BE06DE0CE01825B9F4F0E9455
:1027E0003D0EA596CE010E944E1465E0C6010E94E2
:1027F0006E09882351F060E0CE01DF91CF910F91F7
:10280000EF90DF90CF900C94E51640E064E477E021
:10281000CE01DF91CF910F91EF90DF90CF900C948C
:10282000ED14CF93DF9350E0FA01EE0FFF1FE80F96
:10283000F91F37852089E32FF22FE60FF11DE60FF0
:10284000F11D25913491FA01EE0FFF1FE80FF91FDA
:1028500030A3278FF90165917491FC01D481D69F33
:10286000C02D1124E40FF51FC1A3F901A591B49166
:102870006B2F70E0EC2FF0E0DC01A40FB51F6E179A
:102880007F0720F4F90125913491C32FCD9FC02DEE
:1028900011249296CC93DF91CF91089521E0FC0111
:1028A000248324E020A72BE937E0308B278740E002
:1028B00060E00E94111461E070E083E00E94EB1779
:1028C000E1EBF0E08081887F81608083F894109252
:1028D0008000E1E8F0E01082109285001092840000
:1028E00088E191E0909389008093880080818860DE
:1028F0008083808181608083EFE6F0E08081826068
:102900008083789408950F93FC01862F642F011122
:1029100029C08230D1F048F4882391F0813011F53C
:1029200040E0CF010F910C9411148330A9F0843052
:10293000C9F48481489F602D1124658F268F12C0B1
:102940004B3008F06AE0668B0DC08481489F602D93
:102950001124618F228F06C08481489F602D11242D
:10296000638F248F0F910895FC0121110EC0648B99
:102970008481489F402D1124458B15A214A213A2D7
:1029800081E0878B8093F503108E08958091F50385
:10299000882319F08091F20301C080E08093B40095
:1029A0000895FC0161110DC0178A158A14A213A2A3
:1029B000108E1092F2031092F3031092F5030C9410
:1029C000C6140895CF93DF93EC01611103C00E94F8
:1029D000D1141982DF91CF9108950F931F93CF9354
:1029E000DF93EC018B0141110EC060E00E94E21404
:1029F0001E870D871B8A1A8A81E0898389E08E8B66
:102A0000198E1B8E1D8EDF91CF911F910F9108950E
:102A1000CF93DF93EC01611128C08881882329F1CD
:102A20008981811122C089852F819885E22FF92F14
:102A3000E80FF11DE80FF11D859194918F3F2FEF65
:102A4000920711F4188211C09C879927880F991F4B
:102A5000EA85FB85E80FF91F6591749140E0CE018E
:102A60000E94ED1489858F5F8987DF91CF9108954A
:102A700060E00C94081560E00C94E2140F93CF937F
:102A8000DF93EC0161115DC08981882309F459C08D
:102A90008D89811156C02D853E858A899B89880F35
:102AA000991F820F931FFC01859194910097D1F497
:102AB0008989882321F01B8A1A8AF90111C0198299
:102AC000888160E0882331F0CE010E9408158A8950
:102AD0009B8925C0CE01DF91CF910F910C94D11429
:102AE00085919491BC01769567957695679580FF61
:102AF0001DC0AC01A6E056954795AA95E1F7292F90
:102B000026952695269520514F716F7000E0CE01D5
:102B10000E9483148A899B8901969B8B8A8B880FDC
:102B2000991FED85FE85E80FF91FDACF492F6F73E6
:102B300020E0CE010E94B4148A899B8901969B8B68
:102B40008A8BDF91CF910F91089560E00C943E1530
:102B5000CF93DF93EC016111B9C08F89882309F409
:102B6000B5C08D89811105C0CE01DF91CF910C9444
:102B7000D11481508D8B8DA1811138C08BA19CA166
:102B800001969C01220F331FEF8DF8A1E20FF31F76
:102B900025913491422F47704EA3A90163E05695C9
:102BA00047956A95E1F7BA0176956795232F2695A3
:102BB00026952FA36F732C81629F602D11246DA326
:102BC00041704093F1039CA38BA329A130E08217AD
:102BD000930760F08AA1882329F0281B31093CA3C0
:102BE0002BA304C060E0CE010E94D1148DA18150BE
:102BF0008DA3288D2F5F288F4C893FA1340F8C85A2
:102C0000380F3A836B8D662361F070E0822F99272D
:102C100087FD90950E94001C8C8D869F300D11249D
:102C20003A838A8190E0CB966BE370E00E94001CAF
:102C30008A833E893B83698D662371F0772767FD20
:102C40007095822F992787FD90950E94001C8A8D90
:102C5000869F300D11243B836D8D662391F0822F6A
:102C6000992787FD909570E00E94001CCB0162E0DF
:102C700070E00E94001C2E8D9B81289F900D1124D6
:102C80009B838B814F3339F08A300CF089E087FDCC
:102C900080E08B8301C01B82F894EA81F0E0EE5A59
:102CA000F84FE491E093F40398A58D81989F802DCF
:102CB00011249B81899F802D11249EA1899F802DA5
:102CC00011248093F3038093F2037894DF91CF91E2
:102CD000089560E00C94A8156091F303662321F138
:102CE0008091F6038F5F8093F6039091F403891728
:102CF000D8F08091F50391E089278093F503109235
:102D0000F6038091F103882369F09091420183E4F6
:102D1000989F802D1124895B809342010E94E01BC3
:102D20009093F2030C94C61408951F920F920FB65D
:102D30000F9211242F933F934F935F936F937F9341
:102D40008F939F93AF93BF93EF93FF930E946C1663
:102D5000FF91EF91BF91AF919F918F917F916F9173
:102D60005F914F913F912F910F900FBE0F901F9049
:102D70001895CF93DF93EC0160E00E94E21483E9A1
:102D800097E09E878D871B8A1A8A81E0898389E074
:102D90008E8B198E1B8E1D8EDF91CF910895CF9350
:102DA000DF93EC0160E00E94E2148DE897E09E87DB
:102DB0008D871B8A1A8A81E0898389E08E8B198E20
:102DC0001B8E1D8EDF91CF910895FC01862F9927D0
:102DD00087FD9095668170E06F5F7F4F0E94001CB9
:102DE000858308951F920F920FB60F9211242F938F
:102DF0003F938F939F93AF93BF938091F8039091EC
:102E0000F903A091FA03B091FB033091F70323E09B
:102E1000230F2D3720F40196A11DB11D05C026E812
:102E2000230F0296A11DB11D2093F7038093F80391
:102E30009093F903A093FA03B093FB038091FC03F2
:102E40009091FD03A091FE03B091FF030196A11D97
:102E5000B11D8093FC039093FD03A093FE03B093F8
:102E6000FF03BF91AF919F918F913F912F910F9051
:102E70000FBE0F901F9018952FB7F8946091F8032C
:102E80007091F9038091FA039091FB032FBF08958D
:102E90003FB7F8948091FC039091FD03A091FE034D
:102EA000B091FF0326B5A89B05C02F3F19F00196EE
:102EB000A11DB11D3FBF6627782F892F9A2F620F62
:102EC000711D811D911D42E0660F771F881F991F9C
:102ED0004A95D1F70895CF92DF92EF92FF92CF9368
:102EE000DF936B017C010E944817EB01C114D104F0
:102EF000E104F10489F00E94B21A0E9448176C1B89
:102F00007D0B683E734090F381E0C81AD108E10858
:102F1000F108C851DC4FEACFDF91CF91FF90EF90DD
:102F2000DF90CF900895789484B5826084BD84B595
:102F3000816084BD85B5826085BD85B5816085BDB4
:102F4000EEE6F0E0808181608083E1E8F0E01082CD
:102F5000808182608083808181608083E0E8F0E00E
:102F6000808181608083E1EBF0E0808184608083F8
:102F7000E0EBF0E0808181608083EAE7F0E080812F
:102F8000846080838081826080838081816080838F
:102F90008081806880831092C10008958E3008F08F
:102FA0008E5087702091430190E4299F9001112455
:102FB000822B80937C0080917A00806480937A00D9
:102FC00080917A0086FDFCCF809178002091790075
:102FD00090E0922B08951F93CF93DF93182FEB016E
:102FE00061E00E947318209711F460E004C0CF3FA5
:102FF000D10539F461E0812FDF91CF911F910C94BD
:10300000AC18E12FF0E0E955F84FE491E330F9F026
:1030100048F4E130B9F0E230A1F584B5806284BDB6
:10302000C8BD34C0E730E9F0E83019F1E43049F5C3
:1030300080918000806280938000D0938B00C09349
:103040008A0024C084B5806884BDC7BD1FC080913C
:103050008000806880938000D0938900C0938800AE
:1030600015C08091B00080688093B000C093B30019
:103070000DC08091B00080628093B000C093B40016
:1030800005C0C038D1050CF0B5CFAFCFDF91CF91DF
:103090001F910895833081F028F4813099F08230B7
:1030A000A1F008958730A9F08830B9F08430D1F4C8
:1030B000809180008F7D03C0809180008F77809306
:1030C0008000089584B58F7702C084B58F7D84BD5C
:1030D00008958091B0008F7703C08091B0008F7DFC
:1030E0008093B0000895CF93DF9390E0FC01E55406
:1030F000F84F2491FC01E153F84F8491882349F162
:1031000090E0880F991FFC01E950F84FA591B49108
:103110008351984FFC01C591D4919FB7611108C0AC
:10312000F8948C91209582238C93888182230AC005
:10313000623051F4F8948C91322F309583238C9324
:103140008881822B888304C0F8948C91822B8C9385
:103150009FBFDF91CF9108950F931F93CF93DF937C
:103160001F92CDB7DEB7282F30E0F901E955F84FAF
:103170008491F901E554F84F1491F901E153F84FA6
:1031800004910023C9F0882321F069830E944A1822
:103190006981E02FF0E0EE0FFF1FE351F84FA5919A
:1031A000B4919FB7F8948C91611103C0109581235D
:1031B00001C0812B8C939FBF0F90DF91CF911F9106
:1031C0000F910895CF93DF93282F30E0F901E9554F
:1031D000F84F8491F901E554F84FD491F901E15386
:1031E000F84FC491CC2391F081110E944A18EC2F22
:1031F000F0E0EE0FFF1FED51F84FA591B4912C9127
:103200002D2381E090E021F480E002C080E090E096
:10321000DF91CF91089508950E9493170E940B1992
:103220000E947505C0E0D0E00E943A072097E1F3C4
:103230000E940000F9CFCF92DF92EF92FF920F939E
:103240001F93CF93DF936C017A01EB01E60EF71E1B
:1032500000E010E0CE15DF0561F06991D601ED9137
:10326000FC910190F081E02DC6010995080F191F0E
:10327000F1CFC801DF91CF911F910F91FF90EF9097
:10328000DF90CF9008956115710581F0DB010D90FD
:103290000020E9F7AD0141505109461B570BDC01F5
:1032A000ED91FC910280F381E02D099480E090E0A3
:1032B0000895EF92FF920F931F93CF93DF938C01AA
:1032C000FB01C0E0D0E064917F018FEFE81AF80ABB
:1032D000662361F0D801ED91FC910190F081E02D21
:1032E000C8010995C80FD91FF701EDCFCE01DF91B5
:1032F000CF911F910F91FF90EF9008950C94431977
:10330000DC01ED91FC910190F081E02D09940F9387
:103310001F93CF93DF93EC016DE00E9480198C0125
:103320006AE0CE010E948019800F911FDF91CF913A
:103330001F910F9108950F931F93CF93DF93EC018B
:103340000E9459198C01CE010E948719800F911F8C
:10335000DF91CF911F910F9108958F929F92AF921D
:10336000BF92CF92DF92EF92FF920F931F93CF9372
:10337000DF93CDB7DEB7A1970FB6F894DEBF0FBECF
:10338000CDBF7C01C42EE52FCB01D22E19A221E0A6
:103390002D1510F02AE0D22E8E010F5D1F4F8D2CBF
:1033A000912CA12CB12C6C2D7E2FA50194010E9493
:1033B000141C8C2DD29E80191124015011098A30C1
:1033C00014F4805D01C0895CF8018083211531050A
:1033D0004105510521F0C22EE32FCA01E4CFB80107
:1033E000C7010E944319A1960FB6F894DEBF0FBE25
:1033F000CDBFDF91CF911F910F91FF90EF90DF90A4
:10340000CF90BF90AF909F908F900895CF92DF9212
:10341000EF92FF920F931F93CF93DF93EC016A011A
:103420007B012115310579F4E881F9810190F08162
:10343000E02D642FDF91CF911F910F91FF90EF90BE
:10344000DF90CF9009942A303105E9F477FF1AC054
:103450006DE20E9480198C0144275527BA014C194E
:103460005D096E097F092AE0CE010E94AD19800F27
:10347000911FDF91CF911F910F91FF90EF90DF90FF
:10348000CF9008952AE0B701A601CE01DF91CF9138
:103490001F910F91FF90EF90DF90CF900C94AD199A
:1034A0009A01AB01662757FD6095762F0C94061A9A
:1034B0002115310541F4DC01ED91FC910190F08181
:1034C000E02D642F09940C94AD199A01AB0160E0D2
:1034D00070E00C94581A4F925F926F927F92AF9265
:1034E000BF92CF92DF92EF92FF920F931F93CF93F1
:1034F000DF93CDB7DEB729013A01621B730B840B52
:10350000950B29893A894B895C892A193B094C0911
:103510005D09298B3A8B4B8B5C8B9B01AC016989D4
:103520007A898B899C890E94D01BE418F5080609CA
:103530001709A80197010E94361C2A0D3B1D4C1D3E
:103540005D1DCA01B901DF91CF911F910F91FF90CD
:10355000EF90DF90CF90BF90AF907F906F905F9093
:103560004F900895089598D088F09F5790F0B92F04
:103570009927B751A0F0D1F0660F771F881F991FC8
:103580001AF0BA95C9F712C0B13081F09FD0B1E0FE
:1035900008959CC0672F782F8827B85F39F0B93F0E
:1035A000CCF3869577956795B395D9F73EF49095CA
:1035B0008095709561957F4F8F4F9F4F0895E89448
:1035C00009C097FB3EF490958095709561957F4F6B
:1035D0008F4F9F4F9923A9F0F92F96E9BB27939519
:1035E000F695879577956795B795F111F8CFFAF429
:1035F000BB0F11F460FF1BC06F5F7F4F8F4F9F4F5A
:1036000016C0882311F096E911C0772321F09EE8B7
:10361000872F762F05C0662371F096E8862F70E01D
:1036200060E02AF09A95660F771F881FDAF7880FF7
:103630009695879597F9089597F99F6780E870E0C8
:1036400060E008959FEF80EC089500240A94161618
:10365000170618060906089500240A941216130680
:10366000140605060895092E0394000C11F488230E
:1036700052F0BB0F40F4BF2B11F460FF04C06F5F2A
:103680007F4F8F4F9F4F089557FD9058440F551F00
:1036900059F05F3F71F04795880F97FB991F61F0D4
:1036A0009F3F79F087950895121613061406551F4B
:1036B000F2CF4695F1DF08C0161617061806991FB7
:1036C000F1CF86957105610508940895E894BB27AC
:1036D00066277727CB0197F908950BD0C4CFB5DFC4
:1036E00028F0BADF18F0952309F0A6CFABCF11244C
:1036F000EECFCADFA0F3959FD1F3950F50E0551F91
:10370000629FF001729FBB27F00DB11D639FAA2736
:10371000F00DB11DAA1F649F6627B00DA11D661F85
:10372000829F2227B00DA11D621F739FB00DA11DA6
:10373000621F839FA00D611D221F749F3327A00D60
:10374000611D231F849F600D211D822F762F6A2FFC
:1037500011249F5750408AF0E1F088234AF0EE0F81
:10376000FF1FBB1F661F771F881F91505040A9F78E
:103770009E3F510570F060CFAACF5F3FECF3983EBB
:10378000DCF3869577956795B795F795E7959F5FF5
:10379000C1F7FE2B880F911D9695879597F908958F
:1037A000DB018F939F930E94551CBF91AF91A29F05
:1037B000800D911DA39F900DB29F900D112408952F
:1037C000991B79E004C0991F961708F0961B881F73
:1037D0007A95C9F780950895AA1BBB1B51E107C0D4
:1037E000AA1FBB1FA617B70710F0A61BB70B881F91
:1037F000991F5A95A9F780959095BC01CD01089520
:1038000097FB072E16F4009407D077FD09D00E948D
:10381000EC1B07FC05D03EF4909581959F4F0895D1
:10382000709561957F4F0895A1E21A2EAA1BBB1BCC
:10383000FD010DC0AA1FBB1FEE1FFF1FA217B3077C
:10384000E407F50720F0A21BB30BE40BF50B661F92
:10385000771F881F991F1A9469F760957095809556
:1038600090959B01AC01BD01CF010895052E97FBFA
:103870001EF400940E944D1C57FD07D00E94141C9A
:1038800007FC03D04EF40C944D1C50954095309598
:1038900021953F4F4F4F5F4F0895909580957095BC
:1038A00061957F4F8F4F9F4F08950E94661CA59F83
:1038B000900DB49F900DA49F800D911D112408952B
:1038C000EE0FFF1F0590F491E02D0994A29FB00127
:1038D000B39FC001A39F700D811D1124911DB29F44
:0E38E000700D811D1124911D0895F894FFCFE5
:1038EE00000000048000010000000500E80310271E
:1038FE00030414000008000304160000070000066D
:10390E0002000007020A0003050000000311000078
:10391E000500150002070808000000050000080851
:10392E000C13010177696E0067616D65206F766516
:10393E00720000000000A70F1B194C4F4144455266
:02394E00000077
:00000001FF
